:020000040800F2
:100000000028002049150008051400080B140008FA
:1000100011140008171400081D1400080000000047
:100020000000000000000000000000002314000891
:100030002F140008000000003B14000847140008BB
:1000400091150008911500089115000891150008F8
:1000500091150008911500089115000891150008E8
:1000600091150008911500089115000891150008D8
:1000700091150008911500089115000891150008C8
:1000800091150008911500089115000891150008B8
:1000900091150008911500089115000891150008A8
:1000A0009115000891150008911500089115000898
:1000B0005514000891150008000000009115000873
:1000C00091150008000000000000000091150008D4
:1000D00000000000911500089115000800000000C4
:1000E0009115000891150008911500080000000006
:1000F0000000000000000000000000000000000000
:0C01000000000000000000005FF808F1A3
:10010C0010B5054C237833B9044B13B10448AFF345
:10011C0000800123237010BD0C00002000000000A3
:10012C00E82B000808B5034B1BB103490348AFF398
:10013C00008008BD0000000010000020E82B000823
:10014C0080B483B000AF7860094A7B6852F82330E2
:10015C00012B06D1064A7B68002142F823100123AB
:10016C0000E0002318460C37BD4680BC704700BF2A
:10017C008400002080B483B000AF7860044A7B68B0
:10018C00012142F8231000BF0C37BD4680BC7047DC
:10019C008400002080B582B000AF00237B6087E034
:1001AC00484A7B6852F8232047497B6841F8232052
:1001BC00464A7B6852F8232042497B6841F8232049
:1001CC007B68002B0BD14FF40051414801F0C6FC69
:1001DC00034619463D4A7B6842F823101CE07B68B5
:1001EC00012B0BD14FF48041394801F0B7FC034689
:1001FC001946364A7B6842F823100DE07B68022BC7
:10020C000AD14FF40041324801F0A8FC03461946CC
:10021C002E4A7B6842F823102B4A7B6852F8232025
:10022C0028497B6851F823309A423ED1254A7B6895
:10023C0052F8232025497B6851F823309A4234D157
:10024C00224A7B6852F8232022497B6851F82330DC
:10025C009A4216D01D4A7B6852F823201D497B68B0
:10026C0041F82320194A7B6852F82330002B1CD10B
:10027C00194A7B68642142F823107868FFF77AFFEB
:10028C0013E0154A7B6852F823305A1E12497B68DA
:10029C0041F82320104A7B6852F82330002B04D1FC
:1002AC000C4A7B68012142F823107B6801337B6088
:1002BC007B68022B7FF774AF00BF00BF0837BD46C9
:1002CC0080BD00BF4000002034000020280000202A
:1002DC00000801404C0000207800002080B582B05E
:1002EC0000AF78607B68002B22D100220221BD4830
:1002FC0001F04BFC00220421BA4801F046FC00221C
:10030C000821B84801F041FC00221021B54801F049
:10031C003CFC00222021B34801F037FC0022402194
:10032C00B04801F032FC01228021AE4801F02DFCD6
:10033C007B68012B22D101220221AA4801F025FC65
:10034C0000220421A74801F020FC00220821A54826
:10035C0001F01BFC01221021A24801F016FC012225
:10036C002021A04801F011FC012240219D4801F000
:10037C000CFC012280219B4801F007FC7B68022BBE
:10038C0022D100220221974801F0FFFB0022042118
:10039C00944801F0FAFB01220821924801F0F5FB88
:1003AC00002210218F4801F0F0FB002220218D4803
:1003BC0001F0EBFB012240218A4801F0E6FB002210
:1003CC008021884801F0E1FB7B68032B22D10022BD
:1003DC000221844801F0D9FB00220421814801F05C
:1003EC00D4FB002208217F4801F0CFFB0022102112
:1003FC007C4801F0CAFB012220217A4801F0C5FBA0
:10040C0001224021774801F0C0FB00228021754871
:10041C0001F0BBFB7B68042B22D101220221714825
:10042C0001F0B3FB002204216E4801F0AEFB002268
:10043C0008216C4801F0A9FB01221021694801F048
:10044C00A4FB01222021674801F09FFB00224021E0
:10045C00644801F09AFB00228021624801F095FB70
:10046C007B68052B22D1002202215E4801F08DFB16
:10047C00012204215B4801F088FB00220821594825
:10048C0001F083FB00221021564801F07EFB012273
:10049C002021544801F079FB00224021514801F001
:1004AC0074FB002280214F4801F06FFB7B68062B08
:1004BC0022D1002202214B4801F067FB01220421CA
:1004CC00484801F062FB00220821464801F05DFB20
:1004DC0000221021434801F058FB00222021414802
:1004EC0001F053FB002240213E4801F04EFB00225C
:1004FC0080213C4801F049FB7B68072B22D100226C
:10050C000221384801F041FB00220421354801F05A
:10051C003CFB00220821334801F037FB012210215B
:10052C00304801F032FB012220212E4801F02DFB36
:10053C00012240212B4801F028FB0122802129486F
:10054C0001F023FB7B68082B22D1002202212548D5
:10055C0001F01BFB00220421224801F016FB0022B3
:10056C000821204801F011FB002210211D4801F048
:10057C000CFB002220211B4801F007FB002240212C
:10058C00184801F002FB00228021164801F0FDFA08
:10059C007B68092B22D100220221124801F0F5FAC6
:1005AC00002204210F4801F0F0FA002208210D4826
:1005BC0001F0EBFA002210210A4801F0E6FA0122C0
:1005CC002021084801F0E1FA00224021054801F001
:1005DC00DCFA00228021034801F0D7FA00BF08376B
:1005EC00BD4680BD0008014080B582B000AF786088
:1005FC007B68002B27D100224021D24801F0C5FA9C
:10060C0000228021CF4801F0C0FA00224FF4807103
:10061C00CC4801F0BAFA00224FF40071C94801F03D
:10062C00B4FA00224FF48061C64801F0AEFA002201
:10063C004FF40061C34801F0A8FA01224FF4805135
:10064C00C04801F0A2FA7B68012B27D1012240217E
:10065C00BC4801F09AFA00228021BA4801F095FAC0
:10066C0000224FF48071B74801F08FFA01224FF449
:10067C000071B44801F089FA01224FF48061B1484D
:10068C0001F083FA01224FF40061AE4801F07DFACB
:10069C0001224FF48051AB4801F077FA7B68022BB2
:1006AC0027D100224021A74801F06FFA00228021B7
:1006BC00A44801F06AFA01224FF48071A14801F0BC
:1006CC0064FA00224FF400719E4801F05EFA002299
:1006DC004FF480619B4801F058FA01224FF40061FD
:1006EC00984801F052FA00224FF48051954801F0DD
:1006FC004CFA7B68032B27D100224021914801F052
:10070C0044FA002280218F4801F03FFA00224FF476
:10071C0080718C4801F039FA00224FF4007189483D
:10072C0001F033FA01224FF48061864801F02DFA72
:10073C0001224FF40061834801F027FA00224FF4A4
:10074C008051804801F021FA7B68042B27D10122CB
:10075C0040217C4801F019FA00228021794801F0EF
:10076C0014FA00224FF48071764801F00EFA01223F
:10077C004FF40071734801F008FA01224FF48061C4
:10078C00704801F002FA00224FF400616D4801F04C
:10079C00FCF900224FF480516A4801F0F6F97B68AD
:1007AC00052B27D100224021664801F0EEF90122E9
:1007BC008021644801F0E9F900224FF4807161480E
:1007CC0001F0E3F900224FF400715E4801F0DDF90D
:1007DC0001224FF480615B4801F0D7F900224FF4FD
:1007EC000061584801F0D1F900224FF4805155486E
:1007FC0001F0CBF97B68062B27D100224021514810
:10080C0001F0C3F9012280214E4801F0BEF900220B
:10081C004FF480714B4801F0B8F900224FF400718D
:10082C00484801F0B2F900224FF48061454801F0CC
:10083C00ACF900224FF40061424801F0A6F9002205
:10084C004FF480513F4801F0A0F97B68072B27D16A
:10085C00002240213B4801F098F9002280213948C0
:10086C0001F093F900224FF48071364801F08DF9B4
:10087C0001224FF40071334801F087F901224FF443
:10088C008061304801F081F901224FF400612D485C
:10089C0001F07BF901224FF480512A4801F075F9DF
:1008AC007B68082B27D100224021264801F06DF9E6
:1008BC0000228021234801F068F900224FF4807156
:1008CC00204801F062F900224FF400711D4801F03C
:1008DC005CF900224FF480611A4801F056F90022AD
:1008EC004FF40061174801F050F900224FF4805189
:1008FC00144801F04AF97B68092B2AD100224021C7
:10090C00104801F042F9002280210E4801F03DF917
:10091C0000224FF480710B4801F037F900224FF49C
:10092C000071084801F031F901224FF4806105484B
:10093C0001F02BF900224FF40061024801F025F977
:10094C00002201E0000C01404FF48051034801F0FB
:10095C001CF900BF0837BD4680BD00BF000C01402C
:10096C0080B582B000AF786039607B686F2B03D0A4
:10097C007B68702B17D032E000224FF400611A48CC
:10098C0001F003F901224FF48051174801F0FDF8F2
:10099C003B68164A82FB03129210DB17D31A1846D7
:1009AC00FFF79CFC1BE001224FF400610E4801F0A4
:1009BC00ECF800224FF480510B4801F0E6F83A684D
:1009CC000A4B83FB02139910D317C91A0B469B00D1
:1009DC000B445B00D11A0846FFF780FC00BF00BF38
:1009EC000837BD4680BD00BF0008014067666666DB
:1009FC0080B582B000AF786039607B68DE2B03D0A5
:100A0C007B68DF2B17D032E000224FF400711A48BC
:100A1C0001F0BBF801224FF48061174801F0B5F8E2
:100A2C003B68164A82FB03129210DB17D31A184646
:100A3C00FFF7DAFD1BE001224FF400710E4801F0C4
:100A4C00A4F800224FF480610B4801F09EF83A683C
:100A5C000A4B83FB02139910D317C91A0B469B0040
:100A6C000B445B00D11A0846FFF7BEFD00BF00BF68
:100A7C000837BD4680BD00BF00080140676666664A
:100A8C0080B500AF064B1B6819466F20FFF768FF57
:100A9C00044B1B681946DE20FFF7AAFF00BF80BD80
:100AAC00900000209800002080B500AF064B1B681A
:100ABC0019467020FFF754FF044B1B681946DF20C2
:100ACC00FFF796FF00BF80BD90000020980000202B
:100ADC0080B500AF01210C4801F06FF802210A48E3
:100AEC0001F06BF80421084801F067F8082106486A
:100AFC0001F063F81021044801F05FF8202102484E
:100B0C0001F05BF800BF80BD000C014080B500AF68
:100B1C00002201210E4801F038F8002202210C4875
:100B2C0001F033F800220421094801F02EF80022CC
:100B3C000821074801F029F800221021044801F08F
:100B4C0024F800222021024801F01FF800BF80BDCC
:100B5C00000C014080B500AF01220121074801F0D3
:100B6C0014F800220221054801F00FF8002204219C
:100B7C00024801F00AF800BF80BD00BF000C014024
:100B8C0080B500AF00220121074800F0FEFF0122D2
:100B9C000221054800F0F9FF00220421024800F070
:100BAC00F4FF00BF80BD00BF000C014080B500AF5A
:100BBC0000220121074800F0E8FF0022022105482D
:100BCC0000F0E3FF01220421024800F0DEFF00BF29
:100BDC0080BD00BF000C014080B500AF0122082190
:100BEC00074800F0D2FF00221021054800F0CDFF8D
:100BFC0000222021024800F0C8FF00BF80BD00BFCA
:100C0C00000C014080B500AF00220821074800F01D
:100C1C00BCFF01221021054800F0B7FF0022202163
:100C2C00024800F0B2FF00BF80BD00BF000C0140C5
:100C3C0080B500AF00220821074800F0A6FF002273
:100C4C001021054800F0A1FF01222021024800F0EC
:100C5C009CFF00BF80BD00BF000C014080B400AF02
:100C6C000A4B02221A600A4B03221A60094B052216
:100C7C001A60084B1B68084A1360054B1B68074A2F
:100C8C00136000BFBD4680BC704700BF94000020BD
:100C9C00A00000209C000020900000209800002064
:100CAC0080B500AF944B1B68042B00F2788101A235
:100CBC0052F823F0D50C0008EF0C0008710D000859
:100CCC00270E0008DB0E00088C4B02221A60FFF77F
:100CDC00D7FE4FF4FA7000F0DBFB874B01221A6051
:100CEC0066E100F085FA864B1B68012B1ED14FF490
:100CFC00FA7000F0CDFB814B1B68022B0FD1FFF774
:100D0C00D3FE804B1B68013B7E4A13607E4B1B68F5
:100D1C00013B7D4A1360794B00221A6001E0FFF71A
:100D2C00AFFE764B1B680133744A13600020FFF74B
:100D3C0007FA0346012B40F034814FF4FA7000F0AF
:100D4C00A7FB724B1B68724A13606F4B02221A602E
:100D5C006E4B1B686B4A1360674B02221A60FFF7DD
:100D6C00D5FE1EE1664B1B68012B16D14FF4FA70B1
:100D7C0000F08EFBFFF7ACFE604B1B68022B05D11D
:100D8C00FFF792FE5D4B00221A6001E0FFF778FE40
:100D9C005A4B1B680133594A13600020FFF7D0F9F6
:100DAC000346012B13D14FF4FA7000F071FB594B31
:100DBC001B68574A1360544B03221A60554B1B682F
:100DCC00504A13604C4B03221A60FFF79FFE012020
:100DDC00FFF7B6F90346012B0FD14D4B1B68632B64
:100DEC0002DD4B4B01221A60494B1B680133484A08
:100DFC001360474B1B68434A13600220FFF7A0F9AE
:100E0C000346012B40F0CF80414B1B683F4A1360D7
:100E1C003E4B1B683B4A1360C5E0394B1B68012BEA
:100E2C0016D14FF4FA7000F033FBFFF751FE334B41
:100E3C001B68022B05D1FFF737FE304B00221A60DE
:100E4C0001E0FFF71DFE2D4B1B6801332B4A13608D
:100E5C000020FFF775F90346012B13D14FF4FA70FC
:100E6C0000F016FB2C4B1B68294A1360264B0422FE
:100E7C001A60294B1B68234A13601F4B04221A600B
:100E8C00FFF744FE0120FFF75BF90346012B0FD15E
:100E9C001F4B1B68632B02DD1D4B01221A601C4B80
:100EAC001B6801331A4A1360194B1B68154A1360EF
:100EBC000220FFF745F90346012B76D1144B1B6832
:100ECC00144A1360134B1B680E4A13606DE00C4BF5
:100EDC001B68012B29D14FF4FA7000F0D9FAFFF7F7
:100EEC00F7FD064B1B68022B18D1FFF7DDFD034BFA
:100EFC0000221A6014E000BF58000020A800002057
:100F0C006800002098000020900000209C00002029
:100F1C00A400002094000020A0000020FFF7B0FDEA
:100F2C00244B1B680133234A13600020FFF708F998
:100F3C000346012B0ED1204B00221A601D4B0222BE
:100F4C001A60FFF79DFD4FF4FA7000F0A1FA1B4BED
:100F5C0001221A600120FFF7F3F80346012B0FD191
:100F6C00174B1B68632B02DD154B01221A60144BC7
:100F7C001B680133124A1360114B1B68114A136032
:100F8C000220FFF7DDF80346012B10D10C4B1B6838
:100F9C000D4A13600C4B1B680A4A136007E000BF34
:100FAC0006E000BF04E000BF02E000BF00E000BFAD
:100FBC0000BF80BDA80000205C000020580000206D
:100FCC00A400002098000020A000002080B500AFF5
:100FDC0000F0DAFA00F00EF800F094F800F046F8A1
:100FEC00034801F03BFAFFF739FEFFF759FEFCE727
:100FFC00AC00002080B590B000AF07F11803282298
:10100C000021184601F0E2FD3B1D00221A605A60D7
:10101C009A60DA601A610223BB610123BB62102360
:10102C00FB6200237B6307F11803184600F0DEFD1A
:10103C000346002B01D000F0D5F80F237B60002372
:10104C00BB600023FB6000233B6100237B613B1DE5
:10105C000021184601F04AF80346002B01D000F09D
:10106C00C1F800BF4037BD4680BD000080B586B0DA
:10107C0000AF07F1080300221A605A609A60DA6028
:10108C003B4600221A605A601D4B4FF080421A609A
:10109C001B4B41F63F725A60194B00229A60184B59
:1010AC000922DA60164B00221A61154B00229A6154
:1010BC00134801F083F90346002B01D000F092F89D
:1010CC004FF48053BB6007F1080319460C4801F03C
:1010DC0019FB0346002B01D000F084F800233B6081
:1010EC0000237B603B461946054801F0E1FC0346B2
:1010FC00002B01D000F076F800BF1837BD4680BD3C
:10110C00AC00002080B586B000AF07F108030022C8
:10111C001A605A609A60DA60294B9B69284A43F03E
:10112C0004039361264B9B6903F004037B607B688B
:10113C00234B9B69224A43F008039361204B9B6924
:10114C0003F008033B603B68002241F6FE611D483A
:10115C0000F01BFD002241F6FF711B4800F015FD4D
:10116C0041F6FE63BB600123FB6000233B6102235D
:10117C007B6107F108031946124800F075FB41F634
:10118C00FF73BB600123FB6000233B6102237B6187
:10119C0007F1080319460C4800F066FB4FF4604356
:1011AC00BB600023FB6001233B6107F10803194678
:1011BC00044800F059FB00BF1837BD4680BD00BF86
:1011CC000010024000080140000C014080B582B0C4
:1011DC0000AF786000F070F9FEF7DCFF00BF083755
:1011EC00BD4680BD80B400AF72B600BFFEE7000004
:1011FC0080B500AF4E4B1B68042B00F28E8001A211
:10120C0052F823F025120008571200088512000826
:10121C00BF120008ED120008464B1B684FF47A729F
:10122C0002FB03F3184600F01FF9434B1B68434ABB
:10123C001360404B1B68424A1360FFF78BFCFFF7AF
:10124C00F7FC3B4B01221A6070E03E4B1B68012BF4
:10125C0065D13D4B1B684FF47A7202FB03F31846C1
:10126C0000F002F9FFF7CEFC374B1B68344A1360D1
:10127C002F4B02221A6052E0324B1B68012B50D1CB
:10128C002C4B1B684FF47A7202FB03F3184600F0E8
:10129C00EBF8FFF78BFCFFF79FFC264B1B68274AEC
:1012AC001360254B1B68264A1360214B03221A60DE
:1012BC0037E0244B1B68012B35D1234B1B684FF4B3
:1012CC007A7202FB03F3184600F0CEF8FFF758FCD5
:1012DC001D4B1B68194A1360154B04221A6022E03F
:1012EC00184B1B68012B20D1124B1B684FF47A72E0
:1012FC0002FB03F3184600F0B7F8FFF72BFCFFF7DF
:10130C0097FC0D4B1B680D4A13600A4B1B680C4A6B
:10131C001360074B01221A6007E000BF06E000BF14
:10132C0004E000BF02E000BF00E000BF00BF80BDD2
:10133C005C000020A00000209C00002090000020F9
:10134C0098000020600000209400002080B485B03C
:10135C0000AF154B9B69144A43F001039361124B88
:10136C009B6903F00103BB60BB680F4BDB690E4A42
:10137C0043F08053D3610C4BDB6903F080537B60EB
:10138C007B680A4B5B68FB60FB6823F0E063FB60E7
:10139C00FB6843F08063FB60044AFB68536000BF4A
:1013AC001437BD4680BC704700100240000001405D
:1013BC0080B584B000AF78607B681B68B3F1804F58
:1013CC0013D10C4BDB690B4A43F00103D361094B7E
:1013DC00DB6903F00103FB60FB68002200211C2089
:1013EC0000F00BFA1C2000F024FA00BF1037BD46A9
:1013FC0080BD00BF0010024080B400AFFEE780B497
:10140C0000AFFEE780B400AFFEE780B400AFFEE7AC
:10141C0080B400AFFEE780B400AF00BFBD4680BC17
:10142C00704780B400AF00BFBD4680BC704780B42D
:10143C0000AF00BFBD4680BC704780B500AF00F068
:10144C00E9F800BF80BD000080B500AF024801F094
:10145C0051F800BF80BD00BFAC00002080B400AFCD
:10146C0000BFBD4680BC704780B483B000AF7860CD
:10147C00054A7B681360054B00221A6000BF0C37CD
:10148C00BD4680BC704700BF640000206000002097
:10149C0080B483B000AF7860054A7B681360054B5D
:1014AC0000221A6000BF0C37BD4680BC704700BFDD
:1014BC006C0000206800002080B400AF194B1B6842
:1014CC00002B0BDD174B1B68013B164A1360154BA9
:1014DC001B68002B02DC144B01221A60134B1B6897
:1014EC00002B0BDD114B1B68013B104A13600F4B9B
:1014FC001B68002B02DC0E4B01221A600D4B1B6883
:10150C00002B0BDD0B4B1B68013B0A4A1360094B8C
:10151C001B68002B02DC084B01221A6000BFBD4681
:10152C0080BC704764000020600000206C0000202C
:10153C006800002070000020740000200C480D4949
:10154C000D4A002302E0D458C4500433C4188C4212
:10155C00F9D30A4A0A4C002301E013600432A24278
:10156C00FBD3FFF77BFF01F00DFBFFF72FFD70475F
:10157C00000000200C000020282C00080C0000208B
:10158C00F8000020FEE7000080B500AF084B1B6898
:10159C00074A43F010031360032000F023F90F20D7
:1015AC0000F008F8FFF7D2FE0023184680BD00BFFC
:1015BC000020024080B582B000AF7860124B1A68F0
:1015CC00124B1B7819464FF47A73B3FBF1F3B2FB51
:1015DC00F3F3184600F03BF90346002B01D001232E
:1015EC000EE07B680F2B0AD8002279684FF0FF3091
:1015FC0000F003F9064A7B681360002300E0012326
:10160C0018460837BD4680BD0000002008000020A9
:10161C000400002080B400AF054B1B781A46054B24
:10162C001B681344034A136000BFBD4680BC70475F
:10163C0008000020F400002080B400AF024B1B68AF
:10164C001846BD4680BC7047F400002080B485B0BD
:10165C0000AF78607B6803F00703FB600C4BDB6822
:10166C00BB60BA684FF6FF031340BB60FB681A02FD
:10167C00BB68134343F0BF6343F40033BB60044ABD
:10168C00BB68D36000BF1437BD4680BC704700BF39
:10169C0000ED00E080B400AF044BDB681B0A03F0E4
:1016AC0007031846BD4680BC704700BF00ED00E044
:1016BC0080B483B000AF0346FB7197F90730002B61
:1016CC000BDBFB7903F01F02064997F907305B0926
:1016DC00012000FA02F241F8232000BF0C37BD466E
:1016EC0080BC704700E100E080B483B000AF0346DB
:1016FC003960FB7197F90730002B0ADB3B68DAB2D3
:10170C000C4997F907301201D2B20B4483F800232D
:10171C000AE03B68DAB20849FB7903F00F03043B9B
:10172C001201D2B20B441A7600BF0C37BD4680BCF6
:10173C00704700BF00E100E000ED00E080B489B02C
:10174C0000AFF860B9607A60FB6803F00703FB61D7
:10175C00FB69C3F10703042B28BF0423BB61FB699E
:10176C000433062B02D9FB69033B00E000237B61A9
:10177C004FF0FF32BB6902FA03F3DA43BB681A403D
:10178C007B699A404FF0FF317B6901FA03F3D9432F
:10179C007B680B40134318462437BD4680BC70470A
:1017AC0080B582B000AF78607B68013BB3F1807F7D
:1017BC0001D301230FE00A4A7B68013B53600F21E0
:1017CC004FF0FF30FFF790FF054B00229A60044B5F
:1017DC0007221A60002318460837BD4680BD00BF9B
:1017EC0010E000E080B582B000AF78607868FFF759
:1017FC002DFF00BF0837BD4680BD80B586B000AF59
:10180C000346B9607A60FB7300237B61FFF742FFEC
:10181C0078617A68B9687869FFF790FF024697F9A2
:10182C000F3011461846FFF75FFF00BF1837BD4653
:10183C0080BD80B582B000AF0346FB7197F90730CD
:10184C001846FFF735FF00BF0837BD4680BD80B591
:10185C0082B000AF78607868FFF7A2FF03461846A5
:10186C000837BD4680BD000080B48BB000AF7860F7
:10187C00396000237B6200233B6248E101227B6AD2
:10188C0002FA03F3FB613B681B68FA691340BB6106
:10189C00BA69FB699A4240F037813B685B68A34A9E
:1018AC0093425ED0A14A934275D8A14A934258D034
:1018BC009F4A93426FD89F4A934252D09D4A93427B
:1018CC0069D89D4A93424CD09B4A934263D89B4A19
:1018DC00934246D0994A93425DD8122B2AD8122BA8
:1018EC0059D801A252F823F06F19000849190008C1
:1018FC005B1900089D190008A3190008A31900081A
:10190C00A3190008A3190008A3190008A3190008BB
:10191C00A3190008A3190008A3190008A3190008AB
:10192C00A3190008A3190008A319000851190008ED
:10193C0065190008824A934213D02CE03B68DB689F
:10194C003B6229E03B68DB6804333B6224E03B6884
:10195C00DB6808333B621FE03B68DB680C333B629F
:10196C001AE03B689B68002B02D104233B6213E016
:10197C003B689B68012B05D108233B627B68FA69A5
:10198C001A6109E008233B627B68FA695A6103E03B
:10199C0000233B6200E000BFBB69FF2B01D87B68D2
:1019AC0001E07B6804337B61BB69FF2B02D87B6A47
:1019BC009B0002E07B6A083B9B003B617B691A68D9
:1019CC000F213B6901FA03F3DB431A40396A3B6987
:1019DC0001FA03F31A437B691A603B685B6803F0F6
:1019EC008053002B00F09080564B9B69554A43F076
:1019FC0001039361534B9B6903F00103BB60BB680C
:101A0C00514A7B6A9B08023352F82330FB607B6A95
:101A1C0003F003039B000F2202FA03F3DB43FA6883
:101A2C001340FB607B68494A93420DD07B68484A5F
:101A3C00934207D07B68474A934201D1022304E0CA
:101A4C00032302E0012300E000237A6A02F0030280
:101A5C0092009340FA681343FB603B497B6A9B08F6
:101A6C000233FA6841F823203B685B6803F4803347
:101A7C00002B06D0384B1A683749BB6913430B60EF
:101A8C0006E0354B1A68BB69DB43334913400B60E6
:101A9C003B685B6803F40033002B06D02E4B5A686E
:101AAC002D49BB6913434B6006E02B4B5A68BB694D
:101ABC00DB43294913404B603B685B6803F480139C
:101ACC00002B06D0244B9A682349BB6913438B60C7
:101ADC0006E0214B9A68BB69DB431F4913408B60BE
:101AEC003B685B6803F40013002B06D01A4BDA68D2
:101AFC001949BB691343CB6006E0174BDA68BB6925
:101B0C00DB4315491340CB607B6A01337B623B6836
:101B1C001A687B6A22FA03F3002B7FF4AFAE00BF86
:101B2C0000BF2C37BD4680BC704700BF0000321090
:101B3C0000003110000022100000211000001210D3
:101B4C00000011100010024000000140000801408C
:101B5C00000C0140001001400004014080B485B02D
:101B6C0000AF78600B467B807B689A687B8813405B
:101B7C00002B02D00123FB7301E00023FB73FB7BE2
:101B8C0018461437BD4680BC704780B483B000AF94
:101B9C0078600B467B8013467B707B78002B03D0E0
:101BAC007A887B681A6103E07B881A047B681A6167
:101BBC0000BF0C37BD4680BC704780B485B000AF09
:101BCC0078600B467B807B68DB68FB607A88FB68FF
:101BDC0013401A04FB68D9437B880B401A437B687B
:101BEC001A6100BF1437BD4680BC704780B586B003
:101BFC0000AF78607B68002B01D101236CE27B681D
:101C0C001B6803F00103002B00F08780924B5B688C
:101C1C0003F00C03042B0CD08F4B5B6803F00C030C
:101C2C00082B12D18C4B5B6803F48033B3F5803FE7
:101C3C000BD1894B1B6803F40033002B6CD07B68F1
:101C4C005B68002B68D1012346E27B685B68B3F5C7
:101C5C00803F06D1804B1B687F4A43F4803313606E
:101C6C002EE07B685B68002B0CD17B4B1B687A4A9F
:101C7C0023F480331360784B1B68774A23F480235A
:101C8C0013601DE07B685B68B3F5A02F0CD1724B21
:101C9C001B68714A43F4802313606F4B1B686E4AB8
:101CAC0043F4803313600BE06B4B1B686A4A23F4DC
:101CBC0080331360684B1B68674A23F480231360DE
:101CCC007B685B68002B13D0FFF7B6FC386108E02B
:101CDC00FFF7B2FC02463B69D31A642B01D90323EC
:101CEC00FAE15D4B1B6803F40033002BF0D014E0D9
:101CFC00FFF7A2FC386108E0FFF79EFC02463B6947
:101D0C00D31A642B01D90323E6E1534B1B6803F46C
:101D1C000033002BF0D100E000BF7B681B6803F0A0
:101D2C000203002B63D04C4B5B6803F00C03002BBD
:101D3C000BD0494B5B6803F00C03082B1CD1464BB2
:101D4C005B6803F48033002B16D1434B1B6803F004
:101D5C000203002B05D07B681B69012B01D00123EA
:101D6C00BAE13D4B1B6823F0F8027B685B69DB0032
:101D7C00394913430B603AE07B681B69002B20D078
:101D8C00364B01221A60FFF757FC386108E0FFF769
:101D9C0053FC02463B69D31A022B01D903239BE166
:101DAC002D4B1B6803F00203002BF0D02A4B1B6851
:101DBC0023F0F8027B685B69DB00274913430B6057
:101DCC0015E0264B00221A60FFF736FC386108E05C
:101DDC00FFF732FC02463B69D31A022B01D90323CD
:101DEC007AE11D4B1B6803F00203002BF0D17B68DA
:101DFC001B6803F00803002B3AD07B689B69002B0F
:101E0C0019D0174B01221A60FFF716FC386108E055
:101E1C00FFF712FC02463B69D31A022B01D90323AC
:101E2C005AE10D4B5B6A03F00203002BF0D001204A
:101E3C0000F0A6FA1CE00A4B00221A60FFF7FCFB2C
:101E4C0038610FE0FFF7F8FB02463B69D31A022B0F
:101E5C0008D9032340E100BF0010024000004242B9
:101E6C00800442429E4B5B6A03F00203002BE9D1D3
:101E7C007B681B6803F00403002B00F0A680002392
:101E8C00FB75974BDB6903F08053002B0DD1944B02
:101E9C00DB69934A43F08053D361914BDB6903F0C8
:101EAC008053BB60BB680123FB758E4B1B6803F42E
:101EBC008073002B18D18B4B1B688A4A43F48073B8
:101ECC001360FFF7B9FB386108E0FFF7B5FB02467A
:101EDC003B69D31A642B01D90323FDE0814B1B68AA
:101EEC0003F48073002BF0D07B68DB68012B06D1E8
:101EFC007B4B1B6A7A4A43F0010313622DE07B682B
:101F0C00DB68002B0CD1764B1B6A754A23F001035E
:101F1C001362734B1B6A724A23F0040313621CE0B6
:101F2C007B68DB68052B0CD16D4B1B6A6C4A43F04C
:101F3C00040313626A4B1B6A694A43F00103136280
:101F4C000BE0674B1B6A664A23F001031362644B78
:101F5C001B6A634A23F0040313627B68DB68002B63
:101F6C0015D0FFF769FB38610AE0FFF765FB024605
:101F7C003B69D31A41F28832934201D90323ABE077
:101F8C00574B1B6A03F00203002BEED014E0FFF753
:101F9C0053FB38610AE0FFF74FFB02463B69D31A4B
:101FAC0041F28832934201D9032395E04C4B1B6AD2
:101FBC0003F00203002BEED1FB7D012B05D1484B26
:101FCC00DB69474A23F08053D3617B68DB69002BC4
:101FDC0000F08180424B5B6803F00C03082B61D04E
:101FEC007B68DB69022B46D13F4B00221A60FFF75E
:101FFC0023FB386108E0FFF71FFB02463B69D31A4D
:10200C00022B01D9032367E0354B1B6803F00073E7
:10201C00002BF0D17B681B6AB3F5803F08D1304BA5
:10202C005B6823F400327B689B682D4913434B603B
:10203C002B4B5B6823F474127B68196A7B685B6AB0
:10204C000B43274913434B60274B01221A60FFF7C0
:10205C00F3FA386108E0FFF7EFFA02463B69D31A4E
:10206C00022B01D9032337E01D4B1B6803F00073CF
:10207C00002BF0D02FE01C4B00221A60FFF7DCFA8B
:10208C00386108E0FFF7D8FA02463B69D31A022BF5
:10209C0001D9032320E0124B1B6803F00073002BC3
:1020AC00F0D118E07B68DB69012B01D1012313E02F
:1020BC000B4B5B68FB60FB6803F480327B681B6A2C
:1020CC009A4206D1FB6803F470127B685B6A9A42F1
:1020DC0001D0012300E0002318461837BD4680BD0F
:1020EC0000100240007000406000424280B584B095
:1020FC0000AF786039607B68002B01D10123D0E000
:10210C006A4B1B6803F007033A689A4210D9674B75
:10211C001B6823F0070265493B6813430B60634B54
:10212C001B6803F007033A689A4201D00123B8E018
:10213C007B681B6803F00203002B20D07B681B68B4
:10214C0003F00403002B05D0594B5B68584A43F449
:10215C00E06353607B681B6803F00803002B05D019
:10216C00534B5B68524A43F460535360504B5B686B
:10217C0023F0F0027B689B684D4913434B607B68EE
:10218C001B6803F00103002B40D07B685B68012BBC
:10219C0007D1474B1B6803F40033002B15D10123E7
:1021AC007FE07B685B68022B07D1414B1B6803F017
:1021BC000073002B09D1012373E03D4B1B6803F026
:1021CC000203002B01D101236BE0394B5B6823F038
:1021DC0003027B685B68364913434B60FFF72CFAAC
:1021EC00F8600AE0FFF728FA0246FB68D31A41F2BE
:1021FC008832934201D9032353E02D4B5B6803F0E3
:10220C000C027B685B689B009A42EBD1274B1B68E6
:10221C0003F007033A689A4210D2244B1B6823F050
:10222C00070222493B6813430B60204B1B6803F0E9
:10223C0007033A689A4201D0012332E07B681B689D
:10224C0003F00403002B08D0194B5B6823F4E06205
:10225C007B68DB68164913434B607B681B6803F093
:10226C000803002B09D0124B5B6823F460527B6887
:10227C001B69DB000E4913434B6000F021F802464A
:10228C000B4B5B681B0903F00F030A49CB5C22FA6A
:10229C0003F3094A1360094B1B681846FFF78AF9C8
:1022AC00002318461037BD4680BD00BF00200240F9
:1022BC0000100240102C0008000000200400002038
:1022CC0090B48AB000AF2A4B3C1D0FCB84E80F00B2
:1022DC0040F201233B800023FB610023BB61002300
:1022EC007B6200237B6100233B62224B5B68FB61BA
:1022FC00FB6903F00C03042B02D0082B03D02DE058
:10230C001D4B3B622DE0FB699B0C03F00F0307F1A7
:10231C002802134413F8243C7B61FB6903F48033DB
:10232C00002B13D0134B5B685B0C03F0010307F11C
:10233C002802134413F8283CBB617B690E4A02FB4C
:10234C0003F2BB69B2FBF3F37B6204E07B690B4ADB
:10235C0002FB03F37B627B6A3B6202E0064B3B624F
:10236C0000BF3B6A18462837BD4690BC704700BF7B
:10237C00002C00080010024000127A0000093D00F9
:10238C0080B485B000AF78600A4B1B680A4AA2FB88
:10239C0003235B0A7A6802FB03F3FB6000BFFB6854
:1023AC005A1EFA60002BF9D100BF00BF1437BD468E
:1023BC0080BC704700000020D34D621080B582B005
:1023CC0000AF78607B68002B01D1012341E07B6872
:1023DC0093F83D30DBB2002B06D17B68002283F8EA
:1023EC003C207868FEF7E4FF7B68022283F83D20EE
:1023FC007B681A687B6804331946104600F06AFA49
:10240C007B68012283F846207B68012283F83E20FA
:10241C007B68012283F83F207B68012283F84020EF
:10242C007B68012283F841207B68012283F84220DB
:10243C007B68012283F843207B68012283F84420C7
:10244C007B68012283F845207B68012283F83D20BC
:10245C00002318460837BD4680BD000080B485B007
:10246C0000AF78607B6893F83D30DBB2012B01D074
:10247C00012335E07B68022283F83D207B681B68D2
:10248C00DA687B681B6842F00102DA607B681B68C3
:10249C00164A934209D07B681B68B3F1804F04D075
:1024AC007B681B68124A934211D17B681B689B683E
:1024BC0003F00703FB60FB68062B10D07B681B68DE
:1024CC001A687B681B6842F001021A6007E07B689F
:1024DC001B681A687B681B6842F001021A600023B3
:1024EC0018461437BD4680BC704700BF002C014015
:1024FC000004004080B582B000AF78607B681B6838
:10250C001B6903F00203022B22D17B681B68DB687A
:10251C0003F00203022B1BD17B681B686FF00202D5
:10252C001A617B6801221A777B681B689B6903F030
:10253C000303002B03D0786800F0B1F905E078684C
:10254C0000F0A4F9786800F0B3F97B6800221A77E0
:10255C007B681B681B6903F00403042B22D17B6886
:10256C001B68DB6803F00403042B1BD17B681B681E
:10257C006FF004021A617B6802221A777B681B6871
:10258C009B6903F44073002B03D0786800F087F943
:10259C0005E0786800F07AF9786800F089F97B68D2
:1025AC0000221A777B681B681B6903F00803082B51
:1025BC0022D17B681B68DB6803F00803082B1BD156
:1025CC007B681B686FF008021A617B6804221A771B
:1025DC007B681B68DB6903F00303002B03D078686E
:1025EC0000F05DF905E0786800F050F9786800F0CB
:1025FC005FF97B6800221A777B681B681B6903F004
:10260C001003102B22D17B681B68DB6803F01003CE
:10261C00102B1BD17B681B686FF010021A617B6852
:10262C0008221A777B681B68DB6903F44073002B64
:10263C0003D0786800F033F905E0786800F026F9EB
:10264C00786800F035F97B6800221A777B681B6884
:10265C001B6903F00103012B0ED17B681B68DB683F
:10266C0003F00103012B07D17B681B686FF001029B
:10267C001A617868FEF7AAFD7B681B681B6903F07A
:10268C008003802B0ED17B681B68DB6803F0800312
:10269C00802B07D17B681B686FF080021A61786809
:1026AC0000F067FA7B681B681B6903F04003402B42
:1026BC000ED17B681B68DB6803F04003402B07D10D
:1026CC007B681B686FF040021A61786800F0F9F8BB
:1026DC007B681B681B6903F02003202B0ED17B68E1
:1026EC001B68DB6803F02003202B07D17B681B6879
:1026FC006FF020021A61786800F032FA00BF0837D8
:10270C00BD4680BD80B584B000AF786039607B6811
:10271C0093F83C30012B01D10223B3E07B680122FA
:10272C0083F83C207B68022283F83D207B681B6881
:10273C009B68FB60FB6823F07703FB60FB6823F46A
:10274C007F43FB607B681B68FA689A603B681B6878
:10275C00B3F5005F3ED0B3F5005F00F28780B3F5B0
:10276C00805F00F08580B3F5805F7FD8702B1AD026
:10277C00702B7BD8602B50D0602B77D8502B3CD053
:10278C00502B73D8402B58D0402B6FD8302B64D0A3
:10279C00302B6BD8202B60D0202B67D8002B5CD033
:1027AC00102B5AD062E07B6818683B6899683B68CC
:1027BC005A683B68DB6800F05CF97B681B689B68B7
:1027CC00FB60FB6843F07703FB607B681B68FA686F
:1027DC009A604EE07B6818683B6899683B685A6859
:1027EC003B68DB6800F045F97B681B689A687B687E
:1027FC001B6842F480429A603BE07B6818683B6837
:10280C0059683B68DB681A4600F0BCF87B681B68AB
:10281C005021184600F013F92BE07B6818683B68D0
:10282C0059683B68DB681A4600F0DAF87B681B686D
:10283C006021184600F003F91BE07B6818683B68C0
:10284C0059683B68DB681A4600F09CF87B681B688B
:10285C004021184600F0F3F80BE07B681A683B68DF
:10286C001B681946104600F0EAF802E000BF00E0D1
:10287C0000BF7B68012283F83D207B68002283F82F
:10288C003C20002318461037BD4680BD80B483B071
:10289C0000AF786000BF0C37BD4680BC704780B479
:1028AC0083B000AF786000BF0C37BD4680BC70476A
:1028BC0080B483B000AF786000BF0C37BD4680BCDD
:1028CC00704780B483B000AF786000BF0C37BD4652
:1028DC0080BC704780B485B000AF786039607B688D
:1028EC001B68FB607B68254A934207D07B68B3F179
:1028FC00804F03D07B68224A934208D1FB6823F0B7
:10290C007003FB603B685B68FA681343FB607B6891
:10291C001A4A934207D07B68B3F1804F03D07B688F
:10292C00174A934208D1FB6823F44073FB603B6861
:10293C00DB68FA681343FB60FB6823F080023B689A
:10294C005B691343FB607B68FA681A603B689A68A2
:10295C007B68DA623B681A687B689A627B68074A14
:10296C00934203D13B681A697B681A637B68012226
:10297C005A6100BF1437BD4680BC7047002C014023
:10298C000004004080B487B000AFF860B9607A6092
:10299C00FB681B6A7B61FB681B6A23F00102FB6806
:1029AC001A62FB689B693B613B6923F0F0033B6156
:1029BC007B681B013A6913433B617B6923F00A0373
:1029CC007B617A69BB6813437B61FB683A699A61E6
:1029DC00FB687A691A6200BF1C37BD4680BC704721
:1029EC0080B487B000AFF860B9607A60FB681B6A8E
:1029FC0023F01002FB681A62FB689B697B61FB6821
:102A0C001B6A3B617B6923F470437B617B681B030E
:102A1C007A6913437B613B6923F0A0033B61BB687C
:102A2C001B013A6913433B61FB687A699A61FB6845
:102A3C003A691A6200BF1C37BD4680BC704780B42F
:102A4C0085B000AF786039607B689B68FB60FB6881
:102A5C0023F07003FB603A68FB68134343F00703F1
:102A6C00FB607B68FA689A6000BF1437BD4680BC77
:102A7C00704780B487B000AFF860B9607A603B6093
:102A8C00FB689B687B617B6923F47F437B613B68BC
:102A9C001A027B681A43BB6813437A6913437B6140
:102AAC00FB687A699A6000BF1C37BD4680BC7047D2
:102ABC0080B485B000AF786039607B6893F83C30A7
:102ACC00012B01D1022341E07B68012283F83C20D9
:102ADC007B68022283F83D207B681B685B68FB6087
:102AEC007B681B689B68BB60FB6823F07003FB6012
:102AFC003B681B68FA681343FB607B681B68FA68C9
:102B0C005A607B681B68144A934209D07B681B6827
:102B1C00B3F1804F04D07B681B68104A93420CD1F0
:102B2C00BB6823F08003BB603B685B68BA681343E7
:102B3C00BB607B681B68BA689A607B68012283F86B
:102B4C003D207B68002283F83C2000231846143774
:102B5C00BD4680BC704700BF002C01400004004003
:102B6C0080B483B000AF786000BF0C37BD4680BC2A
:102B7C00704780B483B000AF786000BF0C37BD469F
:102B8C0080BC704770B500260C4D0D4C641BA41016
:102B9C00A64209D100F022F800260A4D0A4C641B0B
:102BAC00A410A64205D170BD55F8043B98470136D8
:102BBC00EEE755F8043B98470136F2E7202C000865
:102BCC00202C0008202C0008242C0008034602446A
:102BDC00934200D1704703F8011BF9E7F8B500BF29
:102BEC00F8BC08BC9E467047F8B500BFF8BC08BCE2
:042BFC009E4670473A
:102C000002030405060708090A0B0C0D0E0F10102D
:102C1000000000000000000001020304060708098C
:042C20003101000876
:042C24000D01000896
:0C2C28000024F400100000000100000077
:040000050800154991
:00000001FF
